:020000040800F2
:10000000E805002001010008CB1A0008BD1900080E
:10001000C91A0008B9060008992600080000000067
:10002000000000000000000000000000DD220008C9
:100030002D07000800000000A52100082524000865
:100040001B0100081B0100081B0100081B01000820
:100050001B0100081B0100081B0100081B01000810
:100060001B0100081B0100081B0100081B01000800
:100070001B0100081B0100081B0100081B010008F0
:100080001B0100081B0100081B0100081B010008E0
:100090001B0100081B0100081B0100081B010008D0
:1000A0001B0100081B0100081B0100081B010008C0
:1000B0001B0100081B0100081B0100081B010008B0
:1000C0001B0100081B0100081B0100081B010008A0
:1000D0001B0100081B0100088D2600081B010008F9
:1000E0001B0100081B0100081B010008DFF80CD0F1
:1000F00000F052FA004800476D320008E805002081
:100100000648804706480047FEE7FEE7FEE7FEE7B1
:10011000FEE7FEE7FEE7FEE7FEE7FEE769240008EC
:10012000ED000008202A04DB203A21FA02F0002129
:10013000704721FA02F3D040C2F1200291400843F7
:100140001946704740EA01039B0703D009E008C93C
:10015000121F08C0042AFAD203E011F8013B00F88C
:10016000013B521EF9D27047D2B201E000F8012BD8
:10017000491EFBD270470022F6E710B513460A4627
:1001800004461946FFF7F0FF204610BD421C10F848
:10019000011B0029FBD1801A704730B50B46014680
:1001A00000202022012409E021FA02F59D4205D316
:1001B00003FA02F5491B04FA02F52844151EA2F1C0
:1001C0000102F1DC30BD2DE9F05F054600209246CA
:1001D0009B4688460646814640241BE02846414609
:1001E00047462246FFF79EFF53465A46C01A9141A2
:1001F00010D311461846224600F0E0F92D1A67EB9D
:1002000001084F4622460120002100F0D7F917EBE4
:1002100000094E41201EA4F10104DFDC48463146AE
:100220002A464346BDE8F09F2DE9FE4F804681EA0D
:100230000300C00F0C46009021F0004123F0004560
:10024000B8EB0200A94105D24046214690461C4623
:100250000B46024623F00040104347D0270DC7F35A
:100260000A00C3F30A510290401A019040286BDA49
:10027000C3F3130040F4801B0098924620B1002382
:10028000D2EB030A63EB0B0B01985946C0F1400215
:10029000504600F093F906460D4650465946019ADD
:1002A00000F09BF910EB08006141002487EA11522D
:1002B00084EAE7731A4340D0009A62B3019A012A94
:1002C0004FEA075215DC001B61EB02014FF00042C0
:1002D00002EA0752CDE90042001C41F58011324686
:1002E0002B4600F09BF903B0BDE8F08F4046214655
:1002F000F9E7001B61EB0201001C41F580130018B7
:100300005B412018A2F5001747EB030140EAD570C6
:10031000B6196D4111E06D084FEA360645EAC07521
:100320004FEA0752001B61EB0201001C41F58011EE
:1003300049084FEA30000019514132462B4603B0BC
:10034000BDE8F04F00F05BB90098012240000023A7
:10035000D0EB020263EBE073009821464FEAE074B1
:10036000B8EB000061EB0401E9E783F000435BE7D1
:1003700081F0004158E72DE9FE4F81EA030404F0C3
:10038000004421F0004100944FF0000B23F00043A3
:1003900050EA01045ED052EA03045BD0C3F30A546E
:1003A000C1F30A552C44A4F2F3340194A0FB025487
:1003B000C1F3130141F48011C3F3130343F4801319
:1003C00001FB024400FB034E840A970A44EA81546D
:1003D00047EA8357A4FB076802958D0A05FB07854A
:1003E0004FEA932C04FB0C542705029D4FEA065854
:1003F00047EA1637B5EB08056EEB070C870E920E31
:1004000047EA811742EA8312A7FB0201B6EB0B0110
:1004100064EB00042B0D43EA0C335E1844EB1C50D4
:10042000DA465146E7FB0201C5F313044FEA0B33EA
:1004300043EA14534FEA0432019C43EA0603A4F151
:100440000C040294009CCDE900B400F0E7F803B07E
:10045000BDE8F08F00200146F9E72DE9F04D81EA73
:10046000030404F0004B21F0004514464FF0000A4D
:1004700023F0004150EA050220D054EA01021DD0C9
:10048000C5F30A570246C5F31303C1F31300C1F3C2
:100490000A5640F4801543F48013A7EB0608101B9E
:1004A000D64608F2FD3873EB050002D308F10108C7
:1004B00001E092185B41B8F1000F03DA0020014619
:1004C000BDE8F08D00204FF48011064684460EE012
:1004D000171B73EB050705D3121B63EB05030643DC
:1004E0004CEA010C49084FEA300092185B4150EA8F
:1004F0000107EDD152EA030012D082EA040083EA38
:100500000501084305D0101BAB4106D20122002390
:1005100006E000224FF0004302E06FF001025310AA
:100520001AEB06004CEB085110EB0A0041EB0B01F3
:10053000BDE8F04D00F063B8C1F30A52C1F31301F6
:1005400040F2FF3341F480119A4202DA0020014662
:10055000704740F233439A42A2F2334202DC5242E5
:10056000FFF7E0BD00F02AB830B5041E71F10004B9
:1005700004DB4FF00044404264EB0101141E73F1B0
:10058000000405DB1C464FF00043524263EB0403BA
:10059000994208BF904230BD064C074D06E0E06826
:1005A00040F0010394E8070098471034AC42F6D3BA
:1005B000FFF7A0FDC43E0008E43E0008202A04DB4B
:1005C000203A00FA02F1002070479140C2F1200366
:1005D00020FA03F3194390407047202A06DBCB171B
:1005E000203A41FA02F043EAE07306E041FA02F3EE
:1005F000D040C2F12002914008431946704710B51F
:10060000141E73F1000408DA401C41F10001921835
:100610005B411A4301D120F0010010BD2DE9F04DDE
:1006200092469B4611B1B1FA81F202E0B0FA80F233
:1006300020329046FFF7C2FF04460F4640EA0A0008
:1006400041EA0B0153465A46084313D0114653EA78
:10065000010019D0C8F140025046FFF763FD05467E
:100660000E46504659464246FFF7A8FF084305D0BC
:10067000012004E020463946BDE8F08D0020054306
:1006800046EAE0762C4337430A986305E40AA0EB78
:1006900008000022FD0A44EA47540A3002D500202F
:1006A0000146E9E7010510196941DDE9084500192E
:1006B0006941BDE8F04DA2E7FEE700000E48016881
:1006C00021F080710160016841F0807101600B4888
:1006D000016821F001010160016841F00101016040
:1006E0000021416000BF00BF00BF406808B100208A
:1006F0007047012070470000FCED00E0001000E0B2
:1007000031B5084D6C6800F09BFA0749B0FBF1F079
:1007100000994843009068680099001B8842FAD30A
:1007200038BD0000001000E040420F00704700009C
:1007300010B590F821100024022903D00421816310
:1007400001243DE001680A6822F00E020A60016897
:100750000A6822F001020A601A4A0168914201D136
:10076000012121E0174A1432914201D110211BE0EE
:10077000144A2832914201D1891515E0114A3C32C0
:10078000914201D189140FE00E4A5032914202D1B8
:100790004FF4803108E00B4A6432914202D14FF4A9
:1007A000801101E04FF08071064A083A5160012142
:1007B00080F82110002180F82010416B01B188479A
:1007C000204610BD0800024070B5044600F004F950
:1007D0000546601C02D004480078044400F0FCF890
:1007E000401BA042FAD370BD3C0000202DE9F84F19
:1007F000DFF8B891002409F1040A0AF1040B23463A
:100800000F270BF1040EC9E00125A5402A40AA429A
:100810007DD1674ED1F804C0ACEB0608B44532D0A8
:1008200014DCBCF1030F3AD009DCBCF1000F2AD074
:10083000BCF1010F1CD0BCF1020F31D11DE0BCF1A5
:10084000110F17D0BCF1120F2AD119E0B8F5881F8B
:1008500019D006DCB8F5803F15D0B8F5801F1FD140
:1008600011E0B8F5001F0ED0B8F5041F18D10AE04A
:10087000CB6815E0CB681B1D12E0CB6808330FE096
:10088000CB680C330CE08B682BB1012B4FF00803C5
:1008900003D0456104E0042302E0056100E0002389
:1008A000FF2A01D8064601E000F104064FEA84055C
:1008B00001D9A5F12005D6F8008007FA05FC28EA41
:1008C0000C0803FA05F548EA0508C6F800804D68EB
:1008D000ED0062D5374DAE6946F00106AE61AD69F7
:1008E00024F0030605F001050095334D06EB050CD9
:1008F000DCF80850A607360F07FA06F825EA0805BF
:10090000DFF8B880404503D14FF0000817E044E01D
:10091000DFF8AC80404502D14FF001080FE0DFF86E
:10092000A480404502D14FF0020808E0DFF898802B
:10093000404502D14FF0030801E04FF0040808FAE7
:1009400006F848EA0508CCF808804D68D9F8006038
:10095000ED034D4601D5164300E096432E604D68E9
:10096000DAF80060AD03554601D5164300E0964322
:100970002E604D68DBF80060ED025D4601D5164340
:1009800000E096432E604D68DEF80060AD027546CB
:1009900001D5164300E096432E60641C0D682A467C
:1009A000E5407FF431AFBDE8F88F0000000401405E
:1009B000000011100010024000000140000801403A
:1009C000000C014000100140001401400AB1016117
:1009D00070470904FBE70000014880687047000089
:1009E0003C00002002488168027811448160704711
:1009F0003C000020074810B5016841F0100101607B
:100A0000032000F075F8002000F006F800F024F84C
:100A1000002010BD0020024070B50D4D04464FF47B
:100A20007A712878B1FBF0F00A490968B1FBF0F05F
:100A300000F0D5FD48B9102C07D200222146501EE7
:100A400000F036F800206C6070BD012070BD000021
:100A50003C000020840000200C4808B5816941F06A
:100A600001018161816901F001010091C16941F0D9
:100A70008051C161C06900F0805000900448416815
:100A800021F0E06141F00071416008BD00100240BA
:100A900000000140002809DB00F01F020121914005
:100AA0004009800000F1E020C0F80011704700000C
:100AB000F0B40E4B1B680C46C3F30223C3F10705C9
:100AC000042D00D90425191D072901D2002300E0B7
:100AD000DB1E012606FA05F1491E214099409E4081
:100AE000761E16403143F0BC01F0FEBD0CED00E077
:100AF000064900F0070208684FF6FF03184040EA75
:100B00000220034A10430860704700000CED00E02B
:100B10000000FA052DE9F0470F46050061D0434E6D
:100B2000306800F00700B84209D2306820F00700B2
:100B300038433060306800F00700B84251D128686F
:100B40003B4C810712D5400703D5606840F4E06054
:100B500060602878000703D5606840F460506060EA
:100B60006068A96820F0F000084360602878C0073A
:100B700028D06868012810D02168022810D0890781
:100B800000292EDA616821F0030101436160FFF75B
:100B900023FF804641F288390DE021688903EFE7A1
:100BA0008901EDE7FFF718FFA0EB0801494502D9DD
:100BB0000320BDE8F0876068696800F00C00B0EBC6
:100BC000810FEFD1306800F00700B8420BD93068D0
:100BD00020F0070038433060306800F00700B8426A
:100BE00001D00120E5E72878400705D56068E9686D
:100BF00020F4E060084360602878000706D560684C
:100C0000296920F4605040EAC100606000F03EF8BD
:100C10006168084AC1F30311515CC8400649086085
:100C200006480068FFF7F8FE0020C2E700200240F7
:100C300000100240880000208400002040000020B6
:100C400001480068704700008400002004480549FE
:100C500000684968044AC1F30221515CC8407047EA
:100C60008400002000100240B03D000804480549FF
:100C700000684968044AC1F3C221515CC84070470A
:100C80008400002000100240B03D000812A185B091
:100C90000FC98DE80F0014A0144A00680490516831
:100CA000134801F00C03042B10D0082B0ED1C1F314
:100CB0008343C9031DF803000AD5516804AAC1F390
:100CC0004041515C0A4A5043B0FBF1F005B0704717
:100CD00008494843FAE7000002030405060708092B
:100CE0000A0B0C0D0E0F1010010200000010024044
:100CF00000127A0000093D002DE9F84F040070D081
:100D00002078C04DC00749D06868C0F38100012831
:100D100007D06868C0F38100022809D16868C00361
:100D200006D52868800339D560680028E7D035E00B
:100D30006068B0F5803F0BD010B1B0F5A02F11D096
:100D4000286820F480302860286820F4802002E0A1
:100D5000286840F480302860606890B1FFF73CFE5E
:100D600006460AE0286840F480202860F0E700BFCB
:100D7000FFF732FE801B642873D828688003F7D5FC
:100D80000CE0FFF729FE064605E000BFFFF724FE52
:100D9000801B6428F0D828688003F7D420789A4E06
:100DA00080074FF001094FF0000839D5686810F04E
:100DB0000C0F07D06868C0F38100022809D1686869
:100DC000C00306D42868800714D52069012808D1FB
:100DD00010E02069B0B1C6F80090FFF7FDFD0746AE
:100DE00005E00AE1FFF7F8FDC01B0228C4D8286817
:100DF0008007F7D52868616920F0F80040EAC10053
:100E000028600DE0C6F80080FFF7E6FD074604E025
:100E1000FFF7E2FDC01B022823D828688007F7D41B
:100E2000207800072CD57948A169D9B1C0F8009085
:100E3000FFF7D2FD074604E0FFF7CEFDC01B0228F6
:100E40000FD8686A8007F7D571484FF4FA510068E7
:100E5000B0FBF1F0009000BF0098411E0091FAD263
:100E60000EE080E0C0F80080FFF7B6FD074604E022
:100E7000FFF7B2FDC01B022875D8686A8007F7D457
:100E80002078400760D5E8690027C00008D4E869E9
:100E900040F08050E861E869012700F08050009040
:100EA0005C480168C90513D40168834641F4807128
:100EB0000160FFF791FD824606E000BFFFF78CFD61
:100EC000A0EB0A0064284ED8DBF80000C005F5D579
:100ED000E06801280AD008B1052813D0286A20F05C
:100EE00001002862286A20F0040002E0286A40F02D
:100EF00001002862E06841F2883B98B1FFF76CFD81
:100F000082460BE0286A40F004002862EEE700BF4A
:100F1000FFF762FDA0EB0A0159455AD8286A8007FD
:100F2000F6D50CE0FFF758FD824605E0FFF754FDCB
:100F3000A0EB0A0159454CD8286A8007F6D41FB1A6
:100F4000E86920F08050E861E06988B36968C1F31E
:100F50008101022944D00228C6F8608004D0FFF73E
:100F60003BFD044638E034E0FFF736FD074604E079
:100F7000FFF732FDC01B02282BD828688001F7D468
:100F8000206AB0F5803F05D16868A16820F4003080
:100F900008436860D4E908010843696821F47411C2
:100FA00008436860C6F86090FFF716FD044606E047
:100FB00025E000BFFFF710FD001B022809D82868B4
:100FC0008001F7D51BE000BFFFF706FD001B0228DC
:100FD00002D90320BDE8F88F28688001F4D40EE020
:100FE0000128F7D06868226A00F48031914204D168
:100FF000616A00F47010884201D00120EAE7002005
:10100000E8E7000000100240000042428004424233
:10101000840000200070004070B5040009D0606AB0
:10102000002540B125616561A56294F8510040B189
:101030000CE0012070BD6068B0F5827FF4D0E561FE
:10104000F2E784F85050204600F040F8022084F87F
:1010500051002068016821F040010160A0882189C9
:1010600000F4827001F404410843A18901F4006195
:101070000843217C01F002010843217D01F00101B8
:101080000843218B01F400710843217F01F03801EE
:10109000084394F8201001F080010843218D01F4E9
:1010A0000051084321680860A069042101EA10404A
:1010B000216848602068C16921F40061C1616565EB
:1010C000012084F85100002070BD000030B585B0CB
:1010D0000024009401940294039400681449884207
:1010E00023D11448816941F480518161816901F4FF
:1010F00080510491816941F00401816180690E4D44
:1011000000F004000490A020009002200190032031
:10111000039069462846FFF769FB4020CDE90004AB
:10112000694628460294FFF761FB05B030BD000018
:101130000030014000100240000801402DE9F84F46
:10114000044640680025984616460F464FF0040BAB
:10115000B0F5827F01D1A06888B194F850000128D1
:1011600018D0012084F85000FFF736FC814694F82F
:1011700051004FF0000A01280ED0022582E084F8C9
:1011800051B013460A462046CDF8008000F036F9EB
:10119000BDE8F88F0220FBE7002F72D0002E70D040
:1011A00084F851B0C4F854A0A763A687E687C4F8B2
:1011B00030A0A4F834A0A4F836A0C4F840A0C4F825
:1011C00044A0A068B0F5004F09D12068016821F063
:1011D000400101602068016821F4804101602068BD
:1011E0000168490603D4016841F040010160E068EC
:1011F000D8B139E020688168C90709D0007BA16BAC
:101200000870A06B401CA063E08F401EE0870CE0DC
:10121000FFF7E2FBA0EB0901414503D3B8F1FF3F23
:1012200003D036E0B8F1000F33D0E08F0028E1D1D1
:101230001DE020688168C90709D0C068A16B0880DB
:10124000A06B801CA063E08F401EE0870CE0FFF7DE
:10125000C3FBA0EB0901414503D3B8F1FF3F03D025
:1012600017E0B8F1000F14D0E08F0028E1D14A4612
:101270004146204600F097FF08B120206065606D70
:1012800000B10125012084F8510084F850A02846BF
:101290007EE70325F6E72DE9F84F044690F8500065
:1012A00000271D461646894601280DD04FF0010B38
:1012B00084F850B0FFF790FB804694F85100BA468E
:1012C000012804D0022793E00220BDE8F88FB9F18D
:1012D000000F73D0002E71D0032084F85100C4F8A1
:1012E00054A0C4F83090A686E686C4F838A0A4F8C6
:1012F0003CA0A4F83EA0C4F844A0C4F840A0A06854
:10130000B0F5004F09D12068016821F0400101606B
:101310002068016841F48041016020680168490645
:1013200003D4016841F040010160E068B0F5006F4E
:10133000606803D030B3012E24D041E008B1012E03
:101340001CD1206B21680088C86006E02068816895
:10135000890709D5216B0988C160206B801C206337
:10136000E08E401EE08609E0FFF736FBA0EB0800A8
:10137000A84202D3681C01D031E07DB3E08E002882
:10138000E4D120E0206B21680078087306E0206833
:101390008168890709D5216B09780173206B401C8E
:1013A0002063E08E401EE0860AE0FFF715FBA0EB0D
:1013B0000800A84203D3681C02D010E017E06DB10A
:1013C000E08E0028E3D142462946204600F019FF6E
:1013D00008B120206065A06818B106E0FFE7032788
:1013E00006E02068C16880680090606D00B1012748
:1013F00084F851B084F850A0384666E72DE9F84FDC
:10140000044690F8500000270A9E1D4692468B46DF
:101410004FF0010901280ED0012084F85000FFF799
:10142000DBFA804694F85100616801280CD0B1F5D0
:10143000827F07D102E00220BDE8F88FA16809B9D8
:10144000042801D00227C2E0BBF1000F27D0BAF177
:10145000000F24D01DB394F85100042802D00520B9
:1014600084F8510000206065C4F838A0E587A5879E
:10147000C4F830B0E586A586206460642068016801
:10148000490603D4016841F040010160E068B0F50D
:10149000006F606805D0E8B3012D46D07FE00127DA
:1014A00095E008B1012D39D1206B21680088C86012
:1014B000206B801C2063E08E401EE0862EE02068BA
:1014C000816889070FD5E18E69B1B9F1010F0AD1A1
:1014D000216B0988C160206B801C2063E08E401E58
:1014E000E0864FF0000920688168C9070CD0E18FC1
:1014F00051B1C068A16B0880A06B801CA063E08F15
:10150000401EE0874FF00109FFF766FAA0EB0800E4
:10151000B04200E009E001D3701C50D1E08E0028F9
:10152000CDD1E08F0028CAD13FE0206B2168007840
:101530000873206B401C2063E08E401EE0862EE086
:101540002068816889070FD5E18E69B1B9F1010F73
:101550000AD1216B09780173206B401C2063E08E57
:10156000401EE0864FF0000920688168C9070CD052
:10157000E18F51B1C068A16B0870A06B401CA063E3
:10158000E08F401EE0874FF00109FFF725FAA0EB3E
:101590000800B04202D3701C01D010E07EB1E08E92
:1015A0000028CDD1E08F0028CAD1424631462046DE
:1015B00000F027FE28B101272020606507E00327FF
:1015C00005E0A06818B92068C16880680090012013
:1015D00084F85100002084F8500038462CE710B5FC
:1015E000401EB0F1807F01D3012010BD4FF0E024F8
:1015F00060610F21601701F077F80020A0610720DB
:101600002061002010BD704770B502680446106864
:10161000D168536910F00F0F52D003F0010501F4A7
:1016200090762E435FD0C20705D0CA0503D5E26B82
:1016300042F00102E263420705D5DA0703D0E26B0C
:1016400042F00202E263820705D5DA0703D0E26BBB
:1016500042F00402E263020707D501F020022A43A8
:1016600003D0E26B42F00802E263E26B002A33D05F
:10167000800604D5880602D5204600F033FF206896
:101680004069E16BC0F38010090700D428B32046FD
:1016900000F01AFF2068416949061AD5416921F016
:1016A00040014161606BA0B12D494163606BFFF760
:1016B0003FF8002810D0606B416BBDE870400847D0
:1016C000830610D58B060ED52046BDE8704000F08D
:1016D00009BF2046FFF797FF70BD2046FFF793FF35
:1016E0000020E06370BD03062BD50B0629D594F8C6
:1016F00039002128F6D1A068B0F5805F01D12069BA
:10170000B0B1206A411C2162216800784860E08CF9
:10171000401E0004000CE084E4D12068C16821F080
:101720008001C1602068C16841F04001C16070BDA6
:10173000206A0088C0F308005060206A801C206284
:10174000E5E74006F3D54806F1D5D168204621F0FB
:101750004001D160202184F8391000F02EF970BDCD
:10176000B924000870B5040004D094F839000025AD
:1017700010B106E0012070BD84F83850204600F01A
:1017800023F8242084F839002068C16821F400512E
:10179000C160204600F0ECFE2068016921F4904110
:1017A00001612068416921F02A0141612068C16816
:1017B00041F40051C160E563202084F8390084F8C9
:1017C0003A00002070BD000030B585B000240094C0
:1017D0000194029403940068184988422BD1184858
:1017E000C16941F40031C161C16901F40031049162
:1017F000816941F0040181618069124D00F00400AB
:101800000490042000900220019003200390694678
:101810002846FEF7EBFF0820CDE90004694628467C
:101820000294FEF7E3FF002211462620FFF740F95D
:101830002620FFF72FF905B030BD0000004400401E
:1018400000100240000801402DE9F84F044690F8CE
:101850003A009A4616460D46202851D1EDB1E6B120
:1018600094F8380001284BD0012084F83800002774
:10187000E763222084F83A00FFF7AEF8A685814698
:10188000E685A0684FF48058404501D1206938B101
:101890002E46002584F8387027E00120BDE8F88F37
:1018A0000026F7E74B46002220212046CDF800A075
:1018B00000F0BAFE08B10320F0E726B1A068404569
:1018C0001BD038B108E020684068C0F3080025F854
:1018D000020B07E0206980B12068406800F07F00BB
:1018E00006F8010BE08D401EE085E08D0028D9D17F
:1018F000202084F83A000020D0E720684068EFE715
:101900000220CBE7704700002DE9F843044690F829
:1019100039001F4616460D4620284CD1C5B1BEB130
:1019200094F83800012846D0012084F838004FF0A0
:101930000008C4F83C80212084F83900FFF74CF8F7
:10194000A6848146E684A068B0F5805F03D004E0F9
:101950000120BDE8F883206928B12E465FF000051C
:1019600084F838800EE00026FAE78021204600F057
:101970005BFEA0B9AEB116F8010B21684860E08C9F
:10198000401EE084E08C4B464FF000020097002898
:10199000EBD14FF04001204600F046FE30B103206D
:1019A000D7E735F8020BC0F30800E6E7202084F8FB
:1019B00039000020CDE70220CBE77047FEE70000AA
:1019C0002DE9F04F85B000242E4800940194029434
:1019D0000394816941F010018161816901F0100176
:1019E0000491816941F020018161816901F0200148
:1019F0000491816941F004018161816901F0040170
:101A00000491816941F0080181618069DFF8789073
:101A100000F008004FF40055049000222946484683
:101A2000FEF7D4FFDFF864A040F6127700223946B3
:101A30005046FEF7CBFFDFF858B04FF4E0480022E5
:101A400041465846FEF7C2FF00950226012503963F
:101A5000CDE9015469464846FEF7C8FE0097039653
:101A6000CDE9015469465046FEF7C0FECDF800802E
:101A70000396CDE9015469465846FEF7B7FE05B016
:101A8000BDE8F08F00100240001001400008014046
:101A9000000C01400B480A494FF4007201604FF4FA
:101AA0008271416000218160C1600161C0E905125D
:101AB000C1610162416281620A21C162FFF7ACBA71
:101AC00000300140B8000020FEE7704708B5002054
:101AD00000F00CF950208DF8000073208DF8010003
:101AE0006423022269460348FFF7D5FB012000F07A
:101AF000FDF808BD500100200449054A0968B1FB02
:101B0000F2F14143491EFDD27047000084000020DD
:101B1000C0C62D000020AFF3008070B5054600F070
:101B20000EF90446C0F380166EB115B1C4F342003D
:101B300028704021072000F0FFFAA00603D52021DD
:101B4000072000F0F9FA304670BD00000FB47CB5F4
:101B500014460D460646582209A95D48FEF7F2FADA
:101B60005C4B0120DE60DD801C8100F0BFF80020AE
:101B700000F0B2F80520FEF727FE0821002000F053
:101B8000DBFA3F21012000F0D7FA0321022000F008
:101B9000D3FA0321084600F0CFFA0321042000F015
:101BA000CBFA0221052000F0C7FA0F21062000F031
:101BB000C3FA0E21072000F0BFFA0021082000F030
:101BC000BBFA0021092000F0B7FAE7248DF80340A2
:101BD0008DF802408DF801408DF804408DF80040EA
:101BE000052269460A2000F0BFFAC2208DF80300E2
:101BF0008DF802008DF801008DF804008DF80000CA
:101C0000052269460B2000F0AFFAC3210C2000F03A
:101C100093FAC4210D2000F08FFAC5210E2000F0A8
:101C20008BFAC6210F2000F087FA8DF803408DF85B
:101C300002408DF801408DF804408DF800400522E7
:101C40006946102000F090FA0021112000F074FA8B
:101C50000021122000F070FA0021132000F06CFA2D
:101C60000021142000F068FA0021152000F064FA29
:101C70000021162000F060FAFFF728FF00211C2049
:101C800000F05AFA00211D2000F056FA01F0A8FCDD
:101C90000F21052000F090F9002000F067F90020E6
:101CA00000F036F9022000F018F900F029F82020A1
:101CB00000F07AF900F006F94C2000F022F900F06B
:101CC00037F800F031F800F07FF87CBC5DF814FBC9
:101CD0005001002048000020020003480189C0682C
:101CE00000D00122FEF772BE480000200200034827
:101CF000C188C06800D00122FEF768BE48000020FD
:101D000010B51D2000F0A0F820F004011D2000F007
:101D100013FA00211C2000F00FFA02490020C870BD
:101D200010BD000048000020FF21E22000F004BAAE
:101D3000FF21E12000F000BA602000F085B8072004
:101D400000F082B87FB504001248134D06D0062C6F
:101D50001ED8022C07D2005D052206E0DDE9021242
:101D6000C5E90412F7E7005D012202A900F0FCF9C1
:101D70000848A978801F005D00F0DEF9022000F01D
:101D800063F80121A1400843C1B2022000F0D4F958
:101D90007FBD0000BE3D00084800002013B50522AD
:101DA00069460A2000F0E0F905226946102000F09B
:101DB000DBF904488178202900D32021112000F08C
:101DC000BBF91CBD4800002010B5002000F03CF815
:101DD00020F00201BDE81040002000F0ADB910B5C0
:101DE00000F010F8172000F02FF800F00104FFF7C2
:101DF0009BFF602000F028F80CB1012010BD0020EE
:101E000010BD000038B505460D4884788C4200D9D5
:101E10000C460020FFF76AFF61208DF80000642364
:101E2000012269460748FFF736FA6423224629460D
:101E30000448FFF783F90120FFF758FF38BD000081
:101E4000480000205001002038B504460020FFF76C
:101E50004DFF04F01F008DF8000064230122694645
:101E60000848FFF718FA6423012206480DF1010122
:101E7000FFF764F99DF801400120FFF737FF204686
:101E800038BD000050010020F8B5044615460E4646
:101E90000020FFF72BFF04F01F008DF800006423E3
:101EA000012269460648FFF7F6F964232A463146BF
:101EB0000348FFF743F90120FFF718FFF8BD0000C2
:101EC000500100207021072000F036B908B13F21F1
:101ED00000E00021012000F02FB910B504460020D9
:101EE000FFF7B2FF20F00C011CB1012C06D041F02D
:101EF0000C01BDE81040002000F01EB941F00801BF
:101F0000F7E77F2800D37F200146052000F014B9B1
:101F10002DE9F04107464FF000080620FFF794FF37
:101F2000114D002620F028046E71022F0ED0012FD3
:101F300010D06E712146062000F0FEF80620FFF753
:101F400083FFA0420BD14FF0010809E06E7144F00D
:101F50002004EFE70120687144F00804EAE76E719D
:101F60004046BDE8F08100004800002010B504465E
:101F70000620FFF769FF20F00601032C0DD0022C8C
:101F800005D0012C06D054B1042C06D007E041F056
:101F9000040104E041F0020101E041F00601BDE866
:101FA0001040062000F0C8B8202800D320200149A6
:101FB000887070474800002000F00F0060F31F1188
:101FC000042000F0B9B8000010B50020FFF73CFF76
:101FD00040F00301002000F0AFF80B49D1E9040103
:101FE000084305D00849052210310A2000F0BCF84A
:101FF000FFF79EFEFFF798FE0120FFF76DFEBDE89C
:1020000010409620FFF778BD4800002070B50546C7
:102010000C460020FFF760FE0020FFF715FF20F0C0
:10202000010040F00201002000F086F80120FFF7D7
:1020300053FE9620FFF760FD2146284600F060F829
:102040000120FFF749FE0F20FFF756FDBDE8704065
:102050000020FFF741BE10B50020FFF73DFEFFF75F
:1020600067FEBDE81040FFF75FBE2DE9F041154661
:102070000E460446FFF763FE0746002020707021DD
:10208000072000F059F8C7F340102070C7F3001084
:102090003070C7F380102870BDE8F0813EB50C4663
:1020A0000546FFF70FFF21462846FFF7AFFFFEF773
:1020B00093FC0446012201A90820FFF7E5FEFFF783
:1020C0003EFE10F0300F04D1FEF786FC001B0A28FC
:1020D000F0D30A4A02A96846FFF7C7FF074C9DF8EC
:1020E0000050207810B1FFF727FE60700020FFF746
:1020F00014FDFFF71DFE28463EBD000048000020ED
:1021000038B505460C460020FFF7F0FDA0208DF8FD
:1021100000006423012269460648FFF7BCF86423E7
:10212000224629460348FFF7B6F80120FFF7DEFDF7
:1021300038BD00005001002038B505460C4600208F
:10214000FFF7D4FD45F020008DF800008DF8014028
:102150006423022269460348FFF79DF80120FFF738
:10216000C5FD38BD50010020F8B5044615460E46A1
:102170000020FFF7BBFD44F020008DF80000642331
:10218000012269460648FFF786F864232A4631464D
:102190000348FFF780F80120FFF7A8FDF8BD000015
:1021A000500100207047F8B5044640684FF4827330
:1021B000984217D1A0684FF48065B0F5004F01D068
:1021C000A8420FD12068066826F0400606606068C5
:1021D000984207D1A068A84204D100920B46002281
:1021E000012103E000920B4600228021204600F0EE
:1021F00019F8002804D0606D40F0200060650320CD
:10220000F8BD38B50B46009204460022802100F04C
:1022100009F8002804D0606D40F0200060650320BC
:1022200038BD00002DE9F8431E4691468846044615
:10223000089DFEF7D1FB401B351AFEF7CDFB074684
:1022400025480068C0F3CB30684338E0701C37D0B5
:10225000FEF7C2FBC01BA84203D215B1009860B3C1
:102260002CE02068416821F0E00141606068B0F531
:10227000827F0BD1A068B0F5004F02D0B0F5806F1F
:1022800004D12068016821F040010160A06AB0F526
:10229000005F09D12068016821F4005101602068C5
:1022A000016841F400510160012084F851000020D0
:1022B00084F850000320BDE8F8830025401E0090FC
:1022C0002068816838EA010004D000214945BDD169
:1022D0000020F0E70121F9E78400002070470000AA
:1022E0000CB50021264801910091026842F4803229
:1022F00002604FF4A063026802F400320092019A77
:10230000521C0192009A12B9019A9A42F3D10268C2
:10231000920333D5012100911A490A6842F0100254
:102320000A600A6822F003020A600A6842F00202A8
:102330000A604168416041684160416841F48061E0
:102340004160416821F47C114160416841F4E81129
:102350004160016841F08071016001688901FCD52C
:10236000416821F003014160416841F00201416090
:102370004168C1F381010229FAD10CBD00910CBD65
:10238000001002400020024010B5ACB036221C49BB
:1023900015A8FDF7D7FE1A4CE08EADF88A00A4F11F
:1023A0002000816D2391B0F85C00ADF89000E08FC3
:1023B000ADF89200112204F1400125A8FDF7C2FEFC
:1023C00094F851008DF8A500606D2A90542216A94A
:1023D0006846FDF7B7FE102202210A48159BFFF759
:1023E000B5FB0020FFF772FD3420FFF78AFD2020A7
:1023F000FFF7DAFD2CB00320BDE81040FFF7B6BDB3
:10240000B80000200008014070B514461D46024681
:102410000B460120FFF796FC20462946BDE8704098
:10242000FFF7BCBCFEF7DEBA30B58FB02821684696
:10243000FDF7A1FE14210AA8FDF79DFE0125280441
:10244000CDE90050002407946846FEF755FC0F20A4
:102450000A90CDE90B540D9400210AA80E94FEF7C2
:1024600059FB0FB030BD00000F4810B5016841F0B6
:102470000101016041680D4A1140416001680C4A48
:1024800011400160016821F480210160416821F45C
:10249000FE0141604FF41F018160FFF721FF0549F4
:1024A0004FF00060086010BD001002400000FFF80F
:1024B000FFFFF6FE08ED00E010B5406A0021C1857F
:1024C000C184FFF7A0F810BD0168CA6822F49072B9
:1024D000CA6001684A6922F001024A61202180F83D
:1024E0003A10704710B590F83A10222901D0022016
:1024F00010BD82684FF480539A4201D1016921B125
:10250000816A9A421BD04AB10AE00268816A526825
:10251000C2F308020A80816A891C08E0026972B16C
:102520000268526802F07F020A70816A491C816267
:10253000C18D491E0904090CC18503D016E002684B
:102540005268F1E70168CA6822F02002CA60016897
:10255000CA6822F48072CA6001684A6922F00102E6
:102560004A61202180F83A10FFF7CCF9002010BD15
:1025700070B5044600680169E26821F440511143D6
:1025800001612169A0680843616908432168CA683C
:1025900041F20C639A430243CA6020684169A26910
:1025A00021F44071114341611E492068884202D1E3
:1025B000FEF75CFB01E0FEF749FB00EBC00101EB1D
:1025C0000012606864218000B2FBF0F3B3FBF1F30A
:1025D0006FF018067343B2FBF0F5B2FBF0F605EBB3
:1025E0008305322303EB0515B5FBF1F5B6FBF1F6D8
:1025F00005F0F00505EB0615B2FBF0F6B2FBF0F0C6
:10260000B0FBF1F06FF01802504306EB800003EBD3
:102610000010B0FBF1F0216800F00F002844886042
:1026200070BD0000003801402DE9F0419846174682
:102630000E460446069D1DE0681C1BD02DB1FEF71A
:10264000CBF9A0EB0800A84214D92068C16821F496
:10265000D071C1602068416921F0010141612020F1
:1026600084F8390084F83A00002084F83800032008
:10267000BDE8F0812068006836EA000004D0002040
:10268000B842D9D00020F3E70120F9E70148FEF76E
:10269000BBBF000010010020FEE700000FB4084B94
:1026A00010B504A902AA039800F000F9044602A993
:1026B000002000F092FC204610BC5DF814FB0000E6
:1026C000DB2F000837B514460846064B6A462146FC
:1026D00000F0ECF804466946002000F07EFC20463D
:1026E0003EBD0000DB2F00080907090E002804DBAF
:1026F00000F1E02080F80014704700F00F0000F1B6
:10270000E02080F8141D704702E008C8121F08C1BD
:10271000002AFAD170477047002001E001C1121F62
:10272000002AFBD1704700002DE9FF5F82B0002135
:10273000DDE90430020DDDF840B0034318D044F663
:102740001050A2F2FF3242431514119801281FD0F5
:10275000A5EB0B00401C5FEA000A4FF000064E4F4D
:10276000DFF83891B046504615D5CAF1000413E0A1
:10277000119801244AA3012801D16FEA0B010298A4
:10278000119AC0E90031C0E9024206B0BDE8F09FED
:10279000CBF10000DFE704460021404A491842EB34
:1027A0000450CDE9001012E0E00707D032463B4666
:1027B00040464946FDF7DFFD8046894632463B46A6
:1027C00010461946FDF7D7FD06460F466410002C4B
:1027D000EAD1DDE90401DDE90023BAF1000F06DAF0
:1027E000FDF7C9FD42464B46FDF7C5FD05E0FDF787
:1027F00034FE42464B46FDF730FE04460E460022AC
:10280000284BFDF7B1FE03D84FF0FF30014607E03B
:102810000022254B20463146FDF706FDFDF78CFED4
:10282000102409E0002C0ADB0A220023FDF7CBFC70
:10283000039B30321A55641E50EA0102F2D1641C27
:10284000039AC4F111031444119A012A03D00122FE
:1028500008430DD10AE0084304D000204FF0110BCB
:10286000119072E7A3EB0B056D1E0DE05B4504DDD7
:102870004FF0000205F1010504E003DA4FF0000219
:10288000A5F10105002AECD002981199C0E90231A6
:10289000C0E9004579E70000000014400000F03F67
:1028A000300000000000F0430000E03F2DE9FF4F42
:1028B00095B09B468946064600250FE2252877D12C
:1028C00000242746F84A0121059400E0044316F845
:1028D000013F203B01FA03F01042F7D130782A285B
:1028E00011D06FF02F033078A0F13002092A16D8EA
:1028F000059A44F0020402EB820203EB4202104408
:10290000761C0590EFE759F8042B0592002A03DAAC
:10291000504244F40054059044F00204761C307890
:102920002E2816D116F8010F44F004042A280DD0E1
:102930006FF02F023078A0F13003092B09D807EB94
:10294000870302EB4303C718761CF3E759F8047BAF
:10295000761C30786C280FD006DC4C2817D06828FD
:102960000DD06A2814D104E0742810D07A280FD131
:102970000DE044F400140AE044F4801401E044F44F
:1029800040147278824202D104F58014761C761CC1
:10299000307866280BD013DC582877D009DC002863
:1029A00075D04528F6D04628F4D047281AD19DE1A5
:1029B00018E0632835D0642879D0652812D195E1D4
:1029C000702873D008DC6728F1D069286FD06E2892
:1029D0000DD06F2806D1B5E073282CD0752875D09E
:1029E000782874D05A46179990476D1C75E1C4F346
:1029F0000250022809D003280DD0D9F8001004286D
:102A00000DD00D6009F1040967E1D9F80010EA174B
:102A1000C1E90052F6E7D9F800100D80F2E70D7019
:102A2000F0E719F8041B8DF8001000208DF8010064
:102A3000EA46012003E059F804AB4FF0FF3061078C
:102A40004FF0000102D40DE008F101018846B942BF
:102A50000FDA8045F8DB1AF808100029F4D108E0F5
:102A600008F1010188468142FADB1AF808100029B2
:102A7000F6D105985B46A0EB080721463846179A21
:102A800000F094FA284400EB080507E04DE029E146
:102A90000DE01AF8010B5A4617999047B8F1010852
:102AA000F7D25B4621463846179A13E142E00A22E4
:102AB0000092C4F302524FF0000A022A08D059F8DB
:102AC00004CB032A4FEAEC710AD00DE029E02AE09A
:102AD00009F1070121F00702F2E802C1914609E07D
:102AE0000FFA8CFC4FEAEC71042A03D14FFA8CFCEC
:102AF0004FEAEC71002907DA0A460021DCF1000CEC
:102B000061EB02012D2202E0220504D52B228DF873
:102B10000420012203E0E20701D02022F7E79046DB
:102B200059E00A2102E010220DE010214FF0000AC6
:102B300000910BE010224FF0000A44F00404082733
:102B4000009203E008224FF0000A0092C4F3025200
:102B5000022A05D059F804CB0021032A08D009E045
:102B600009F1070121F00702F2E802C1914605E0F0
:102B70001FFA8CFC042A01D10CF0FF0C4FF0000866
:102B8000220728D5702806D0009B83F0100353EA53
:102B90000A0305D00EE040228DF80420012208E04F
:102BA0005CEA010206D030228DF804208DF8050081
:102BB00002229046009B83F0080353EA0A030AD1DD
:102BC0005CEA010201D1620705D530228DF80420AC
:102BD0004FF001087F1E582804D034A003900EA89F
:102BE00002900DE036A0F9E753466046009AFDF7E3
:102BF000EAFA84460398825C0298401E02900270B2
:102C00005CEA0100F0D1029806A9081A00F1200A36
:102C1000600702D524F4803400E00127574502DD27
:102C2000A7EB0A0000E0002000EB0A0100900598E5
:102C30004144401A0590E00306D45B462146179AAA
:102C4000059800F0B3F90544002706E001A85A46AC
:102C5000C05D179990476D1C7F1C4745F6DBE0036C
:102C60000CD55B462146179A059800F09FF905445C
:102C700004E030205A46179990476D1C0099481E71
:102C800000900029F5DC08E0029802995A46007885
:102C9000491C0291179990476D1CBAF10001AAF1E5
:102CA000010AF1DC65E1000009280100303132330E
:102CB0003435363738396162636465660000000078
:102CC0003031323334353637383941424344454662
:102CD0000000000000F058F90544761C3078002808
:102CE0007FF4ECAD19B02846BDE8F08F620700D440
:102CF000062709F1070222F0070CFCE80223E1464F
:102D000003F000485FEA080C02D00FF2702C0DE0CF
:102D10005FEA045C02D50FF2682C07E05FEAC47C2E
:102D200002D00FF2602C01E0AFF2700C4FF0FF38D0
:102D300023F00043CDF850C065280CD006DC4528B0
:102D400009D046281DD047283DD13DE0662818D03F
:102D500067287ED138E00021112F01DB112000E02F
:102D6000781CCDE9000106A90EA8FFF7DDFCDDE91E
:102D70000F010E9A03910021009207F1010A0491BC
:102D80004DE04FF000400097CDE9011006A90EA8D4
:102D9000FFF7CAFCDDE90F0203920E9B1199002296
:102DA000DDF80CA00093049211B9791C00EB010A24
:102DB000B7EB0A0004D4C0F1FF3007F1010A049018
:102DC000AAEB0700019044E0012F00DA012700215F
:102DD000112F01DD112000E03846CDE9000106A9E0
:102DE0000EA8FFF7A1FCDDE90F010E9A0391002167
:102DF00004910092BA4621070CD40399514500DA98
:102E00008A46BAF1010F05DD009AAAF10101515C71
:102E1000302908D0B84202DA10F1040F06DA012195
:102E2000CDE9011015E0AAF10101E9E7002805DC70
:102E3000049901440491AAEB000102E0411C5145B0
:102E400000DD8A460499401A401C01904FF0004072
:102E50000290200704D40198504501DBCDF804808E
:102E600000208DF84F0002980DF14F07B0F1004F90
:102E700025D02B200E9002984FF0020800280CDA83
:102E8000404202902D200E9007E00A210298FDF7A3
:102E900084F93031029007F8011DB8F10001A8F162
:102EA0000108F2DC02980028EFD1791E0E98087014
:102EB000307800F0200040F0450007F8020D12A81D
:102EC000C01B00F107081498007800B1012000EB46
:102ED0000A01019801EBE07105984144401A401E37
:102EE0000590E00306D45B462146179A059800F04A
:102EF0005DF805441498007818B15A461799904720
:102F00006D1CE00324D55B462146179A059800F016
:102F10004DF805441CE00498002807DBDDE90301B7
:102F2000884203DD0098405C179901E01799302032
:102F30005A469047049805F10105401C04900198F9
:102F4000401E019004D12E205A46179990476D1CBF
:102F5000BAF10001AAF1010ADDDC05E017F8010B66
:102F60005A46179990476D1CB8F10001A8F1010865
:102F7000F4DC5B462146179A0598ABE62D0000006D
:102F80002B000000200000002DE9F0410446002540
:102F90001E461746880404D405E039462020B04771
:102FA0006D1C641EF9D52846BDE8F0812DE9F0417D
:102FB000044600251E469046C80301D5302700E090
:102FC0002027880404D505E041463846B0476D1CEB
:102FD000641EF9D52846BDE8F0810A68531C0B60D1
:102FE0001070704710B5012000F036F9BDE81040B0
:102FF0000320FDF7E9BB000005494A7810B142F013
:10300000030001E022F00300487000F025B9000041
:103010006000002010B5094C0122E188A069FDF78D
:10302000D5FC1420FDF76CFB0022E188A069FDF7B8
:10303000CDFCBDE810403C20FDF762BB60000020E5
:103040002DE9F05F07460AA81C4690E8000F1546D8
:103050000E46FDF733FB1D48002187618680C58041
:103060000462A0F81080A0F81290A0F814A0A0F8B4
:1030700016B00170282181701420FDF7A5FB0320F4
:1030800000F0C6F80520FDF79FFB032000F0C0F814
:103090000120FDF799FB032000F0BAF80120FDF7AD
:1030A00093FB022000F0B4F80120FDF78DFB2820EF
:1030B00000F0D2F80F2000F0CFF8012000F0CCF89B
:1030C000BDE8F05F0320FDF77FBB0000600000203B
:1030D0000FB470B586B00BAA68460A99FFF7F2FAEA
:1030E00000246E4608E0355D012000F011F8284606
:1030F00000F022F8641CE4B26846FDF747F8A042ED
:1031000001D9102CEFD306B070BC5DF814FB0000A1
:103110000246024881888069FDF758BC60000020A3
:1031200001F00F0120B141F0C00000BF00F094B8E1
:1031300041F08000FAE700002DE9F84F0209334C16
:1031400002F0080302F0040B217802F0020902F0F9
:10315000010700F0080A00F0040600F0020500F084
:103160000108009321B342462189E069FDF72EFC56
:103170002A466189E069FDF729FC3246A189E069A8
:10318000FDF724FC5246E189E069FDF71FFC3A4651
:10319000218A206AFDF71AFC4A46618A206AFDF7F7
:1031A00015FC5A46A18A206AFDF710FC009A25E01A
:1031B0003A46218A206AFDF709FC4A46618A206A5C
:1031C000FDF704FC5A46A18A206AFDF7FFFBE18A5D
:1031D000009A206AFDF7FAFBFFF71CFF4246218A9E
:1031E000206AFDF7F3FB2A46618A206AFDF7EEFBB1
:1031F0003246A18A206AFDF7E9FB5246E18A206A3D
:10320000FDF7E4FBBDE8F84FFFF704BF60000020C6
:1032100070B505460020FFF77BFF0E4C05F001025C
:10322000218A206AFDF7D2FB05F00202618A206A3A
:10323000FDF7CCFB05F00402A18A206AFDF7C6FB6E
:1032400005F00802E18A206AFDF7C0FBBDE8704086
:10325000FFF7E0BE6000002010B504460020FFF735
:1032600057FF2046BDE81040FFF766BF1FB5FDF7CA
:10327000C1FBFFF7D9F8FEF7A3FBFEF70BFCD34821
:10328000D149002601604FF41651C0E901160C2106
:10329000C660C0E904618661C661FEF763FA4FF457
:1032A00000635A10511048108DE80F00820101018F
:1032B000C74BC848FFF7C4FEFFF794FE002108463D
:1032C000FFF72EFFC44C2068FFF702FF0521002006
:1032D000FFF726FFA4F128056868FFF7F9FE09212A
:1032E0000020FFF71DFF6068FFF7F2FE0D210020B0
:1032F000FFF716FF6868FFF7EBFE04210120FFF7D8
:103300000FFFA068FFF7E4FE09210120FFF708FF87
:103310006868FFF7DDFE0020FFF76EFEFFF734F868
:10332000203C94E80F00FFF76FF8D4E90001D4E9DE
:103330000423FFF769F8D4E90001D4E90623FFF775
:1033400063F84FF4005B01225946A448FDF73EFBA9
:10335000DFF87892A4F110074FF0010AB846A9F1FE
:1033600078099D490A23012230399848FEF76CFA02
:10337000387830380628F4D2DFE800F00331639261
:10338000C1F4D4E90201FEF709FD0520FDF71CFA9E
:10339000FEF761FE904820212C38C8F80460FEF743
:1033A0007DFEFEF711FED4E900230120FEF7CAFCE2
:1033B0000520FDF709FAFEF7ADFB0028D1D08348C0
:1033C00020217838FEF70BFD99F800000028C8D1BD
:1033D000002259468148FDF7F9FA05215EE0D4E95B
:1033E0000201FEF7DBFC0520FDF7EEF9FEF733FEE8
:1033F000794820212C38C8F804A0FEF74FFEFEF7CC
:10340000E3FDD4E900230120FEF79CFC0520FDF735
:10341000DBF9FEF77FFB0028A3D06C482021783829
:10342000FEF7DDFC99F8000001289AD101225946E7
:103430006A48FDF7CBFA05215FE000BFFFF748FEC1
:103440008FE7D4E90401FEF7A9FC0520FDF7BCF9DC
:10345000FEF701FE604820212C38C8F80460FEF712
:103460001DFEFEF7B1FDD4E900230120FEF76AFC42
:103470000520FDF7A9F9FEF74DFB0028E0D05348E1
:1034800020217838FEF7ABFC99F800000028D7D14E
:10349000002259465148FDF799FA0D2100205CE0C1
:1034A000D4E90401FEF77AFC0520FDF78DF9FEF75B
:1034B000D2FD494820212C38C8F804A0FEF7EEFDC3
:1034C000FEF782FDD4E900230120FEF73BFC052036
:1034D000FDF77AF9FEF71EFB0028B1D03B4820210A
:1034E0007838FEF77CFC99F800000128A8D1012269
:1034F00059463A48FDF76AFA0D21002060E0D4E908
:103500000601FEF74BFC0520FDF75EF9FEF7A3FD73
:10351000314820212C38C8F80460FEF7BFFDFEF7C3
:1035200053FDD4E900230120FEF70CFC0520FDF734
:103530004BF9FEF7EFFA0028A0D024482021783874
:10354000FEF74DFC99F800000028A0D10022594652
:103550002248FDF73BFA09210120FFF7E1FD286829
:103560006CE7FFE7D4E90601FEF718FC0520FDF73C
:103570002BF9FEF770FD184820212C38C8F804A05C
:10358000FEF78CFDFEF720FDD4E900230120FEF7B5
:10359000D9FB0520FDF718F9FEF7BCFA00289CD0EE
:1035A0000A4820217838FEF71AFC99F80000012813
:1035B0009CD1012259460948FDF708FA092101204A
:1035C000FFF7AEFD686839E70044004010010020B5
:1035D00000080140000C01403000002000100140B4
:1035E00010B5A0B0F4A104A8FFF758F804A8FCF7A0
:1035F000CDFD82B20A2304A9FC48FEF785F900201C
:10360000FEF722FC01077AD5400701D5F8A100E0BA
:10361000FEA104A8FFF742F804A8FCF7B7FD82B2A8
:103620000A2304A9F148FEF76FF90120FEF70CFC0C
:10363000C0F34014C0F30013C0F3C002C0F3800114
:103640008DE81E0000F00102C0F34003F64904A813
:10365000FFF724F804A8FCF799FD82B20A2304A915
:10366000E248FEF751F90220FEF7EEFBC0F34014EA
:10367000C0F30013C0F3C002C0F380018DE81E0048
:1036800000F00102C0F34003E84904A8FFF706F880
:1036900004A8FCF77BFD82B20A2304A9D348FEF7F5
:1036A00033F90320FEF7D0FB00F00302E0A104A8E9
:1036B000921CFEF7F3FF04A8FCF768FD82B20A2310
:1036C00004A9CA48FEF720F90520FEF7BDFB00F06B
:1036D0007F02DEA104A8FEF7E1FF04A8FCF756FD77
:1036E00082B20A2304A9C148FEF70EF90620FEF7AC
:1036F000ABFB0446000704D5D9A103E0FFE7DEA138
:1037000087E7E2A104A8FEF7C9FF04A8FCF73EFD85
:1037100082B20A2304A9B548FEF7F6F8032010EA9E
:10372000540006D0012806D0022806D0032806D06F
:1037300009E0DCA104E0E0A102E0E4A100E0E8A1EE
:1037400004A8FEF7ABFF04A8FCF720FD82B20A2311
:1037500004A9A648FEF7D8F805221DA90A20FEF7FD
:1037600093FB9DF876009DF874209DF875108DE808
:1037700007009DF877309DF87820DEA104A8FEF7B9
:103780008DFF04A8FCF702FD82B20A2304A9974822
:10379000FEF7BAF805221DA90B20FEF775FB9DF870
:1037A00076009DF874209DF875108DE807009DF84F
:1037B00077309DF87820DBA104A8FEF76FFF04A8FE
:1037C000FCF7E4FC82B20A2304A98848FEF79CF8BF
:1037D00001221DA90C20FEF757FB9DF87420DDA1E6
:1037E00004A8FEF75BFF04A8FCF7D0FC82B20A2312
:1037F00004A97E48FEF788F801221DA90D20FEF7D6
:1038000043FB9DF87420DDA104A8FEF747FF04A840
:10381000FCF7BCFC82B20A2304A97448FEF774F8D2
:1038200001221DA90E20FEF72FFB9DF87420DDA1BB
:1038300004A8FEF733FF04A8FCF7A8FC82B20A2311
:1038400004A96A48FEF760F801221DA90F20FEF7BF
:103850001BFB9DF87420DDA104A8FEF71FFF04A840
:10386000FCF794FC82B20A2304A96048FEF74CF8E6
:1038700005221DA91020FEF707FB9DF876009DF894
:1038800074209DF875108DE807009DF877309DF83D
:103890007820D8A104A8FEF701FF04A8FCF776FC65
:1038A00082B20A2304A95148FEF72EF81120FEF730
:1038B000CBFA00F03F02DAA104A8FEF7EFFE04A85D
:1038C000FCF764FC82B20A2304A94848FEF71CF8FE
:1038D0001220FEF7B9FA00F03F02D8A104A8FEF7C3
:1038E000DDFE04A8FCF752FC82B20A2304A93F487B
:1038F000FEF70AF81320FEF7A7FA00F03F02D6A160
:1039000004A8FEF7CBFE04A8FCF740FC82B20A2311
:1039100004A93648FDF7F8FF1420FEF795FA00F0E9
:103920003F02D4A104A8FEF7B9FE04A8FCF72EFCC0
:1039300082B20A2304A92D48FDF7E6FF1520FEF701
:1039400083FA00F03F02D2A104A8FEF7A7FE04A864
:10395000FCF71CFC82B20A2304A92448FDF7D4FF1B
:103960001620FEF771FA00F03F02D0A104A8FEF77E
:1039700095FE04A8FCF70AFC82B20A2304A91B489E
:10398000FDF7C2FF1C20FEF75FFAC0F34014C0F33E
:103990000013C0F3C002C0F380018DE81E0000F0E8
:1039A0000102C0F34003C84904A8FEF777FE04A84B
:1039B000FCF7ECFB82B289E10D0A2A2A2A2A2A2A7C
:1039C0002A2A2A2A2A2A2A2A2A2A2A2A2A2A2A2A57
:1039D0002A2A2A2A2A2A2A2A2A2A2A2A2A2A2A2A47
:1039E0002A2A2A2A2A2A2A2A0D0A0000A8010020A7
:1039F0004352433A0D0A0909456E61626C65642CB5
:103A00002032204279746573200D0A004352433AF4
:103A10000D0A0909456E61626C65642C20312042F3
:103A2000797465200D0A0000E83D00082C3E00086E
:103A300053455455505F41573A0D0A0909256420F2
:103A40006279746573200D0A0000000052465F43DE
:103A5000483A0D0A09092564204348200D0A000050
:103A60004461746120526174653A0D0A0909324D4E
:103A7000627073200D0A00004352433A0D0A09098F
:103A800044697361626C6564200D0A00446174616D
:103A900020526174653A0D0A0909314D6270732034
:103AA0000D0A000052465F5057523A0D0A09092D7F
:103AB00031386442200D0A0052465F5057523A0D89
:103AC0000A09092D31326442200D0A0052465F5026
:103AD00057523A0D0A09092D366442200D0A00009A
:103AE00052465F5057523A0D0A0909306442200D80
:103AF0000A00000052585F506970653020416464CC
:103B000072733A0D0A0909253032582C2530325883
:103B10002C253032582C253032582C253032582064
:103B2000200D0A0052585F5069706531204164646D
:103B300072733A0D0A0909253032582C2530325853
:103B40002C253032582C253032582C253032582034
:103B5000200D0A0052585F5069706532204164643C
:103B600072733A0D0A090978782C78782C78782CB9
:103B700078782C2530325820200D0A0052585F509A
:103B8000697065332041646472733A0D0A090978DB
:103B9000782C78782C78782C78782C25303258202E
:103BA000200D0A0052585F506970653420416464EA
:103BB00072733A0D0A090978782C78782C78782C69
:103BC00078782C2530325820200D0A0052585F504A
:103BD000697065352041646472733A0D0A09097889
:103BE000782C78782C78782C78782C2530325820DE
:103BF000200D0A0054582041646472733A0D0A097A
:103C000009253032582C253032582C253032582C8A
:103C1000253032582C2530325820200D0A00000063
:103C200052585F50575F50303A0D0A0909256420F9
:103C30006279746573200D0A0000000052585F50CD
:103C4000575F50313A0D0A0909256420627974657D
:103C500073200D0A0000000052585F50575F503229
:103C60003A0D0A09092564206279746573200D0AEA
:103C70000000000052585F50575F50333A0D0A0958
:103C8000092564206279746573200D0A0000000024
:103C900052585F50575F50343A0D0A090925642085
:103CA0006279746573200D0A0000000052585F505D
:103CB000575F50353A0D0A09092564206279746509
:103CC00073200D0A00000000783E00080A2304A9B2
:103CD0001C48FDF719FE1D20FEF7B6F80446400704
:103CE00001D519A100E01EA104A8FEF7D7FC04A885
:103CF000FCF74CFA82B20A2304A91248FDF704FE2D
:103D0000A00701D51CA100E022A104A8FEF7C6FC73
:103D100004A8FCF73BFA82B20A2304A90948FDF77C
:103D2000F3FDAFF26C3104A8FEF7B8FC04A8FCF771
:103D30002DFA82B20A2304A90248FDF7E5FD20B05E
:103D400010BD0000A8010020454E5F44504C3A0DC4
:103D50000A0909456E61626C6564200D0A00000065
:103D6000454E5F44504C3A0D0A090944697361623B
:103D70006C6564200D0A0000454E5F41434B5F5067
:103D800041593A0D0A0909456E61626C6564200D5E
:103D90000A000000454E5F41434B5F5041593A0DC8
:103DA0000A090944697361626C6564200D0A0000A8
:103DB00000000000010203041112131415160A0B6F
:103DC0000C0D0E0F100000004F4E20005469766954
:103DD0003A00000046616E3A000000004C616D70D0
:103DE0003A0000004F464600454E41413A0D0A094F
:103DF0000950303A0925640D0A090950313A09255C
:103E0000640D0A090950323A0925640D0A0909505E
:103E1000333A0925640D0A090950343A0925640D1D
:103E20000A090950353A0925640D0A00454E5F52CA
:103E300058414444523A0D0A090950303A09256460
:103E40000D0A090950313A0925640D0A0909503251
:103E50003A0925640D0A090950333A0925640D0A07
:103E6000090950343A0925640D0A090950353A09FF
:103E700025640D0A0000000044594E50445F7069EB
:103E800070653A0D0A090950303A0925640D0A098E
:103E90000950313A0925640D0A090950323A0925B9
:103EA000640D0A090950333A0925640D0A090950BD
:103EB000343A0925640D0A090950353A0925640D7B
:103EC0000A000000E43E0008000000209800000006
:103ED000082700087C3F00089800002050050000DB
:103EE000182700080000000000000000C83D00087E
:103EF000E43D000800000000000000000100000098
:103F000000000000020000000000000003000000AC
:103F100000000000DC3D0008D43D0008CC3D000856
:103F20000100000010000000000000000000000080
:103F30000000000000000000000000000000000081
:103F400000000000010F3800000000000000000029
:103F50000000000000000000000000000000000061
:103F6000000000000000000000A24A040000000061
:0C3F70000000000001020304060708091D
:04000005080000ED02
:00000001FF
